:1002F700012A00013500C10001370001380001362D
:100307000002330000013A0004430020ACFF01471C
:1003170000013900012900082B000000000000003F
:10032700000821FEFDFBF7EFDFBF7F083B444EE4EB
:050337005FE44E445F8D
:1003CA00E4FEC2A1EF3392A0EF25E0FFD2A10EBE58
:0203DA0008F029
:0103DC0022FE
:05042900C2A2D2A222D4
:0E03EE007FF87E02EF1FAC0670011E4C70F609
:0103FC0022DE
:1003B600AB07AA06EB1BAE0270011A4E60051203CC
:0403C600EE80F122B2
:1001B700EFB40800504A9001C4F82828730201DC04
:1001C7000201E00201E40201E80201EC0201F3028C
:1001D70001FA020201C2B78015C2B7801FC2B780F9
:1001E70006C2B78010D2B7C2B6D2B522D2B7D2B63E
:1001F700D2B522D2B7D2B6C2B522D2B7C2B6C2B52D
:0102070022D4
:10020800EFB40800504A900215F828287302022D0E
:1002180002023102023502023902023D02024402A0
:10022800024B020252C297800EC2978011C2978079
:1002380014C2978017D297C296C29522D297C296B7
:10024800D29522D297D296C29522D297D296D2959B
:010258002283
:0B040900D2B2D2B3D288D2A8D2AF2268
:1003DD00E4F5A2759D01F5BD75BCC00000000000DF
:0103ED0022ED
:10039E0043BC080000000000E5BC30E4FB53BCEF9A
:0803AE000000000000AFBD22B9
:10038100E4FEFDFC12039EEF2DFDE43CFC0EBE0AD3
:0C039100F3AE04AF057C007D0A120110E1
:01039D00223D
:0A041F00EFD394604002D322C32201
:0C03FD00EFC394B050037F01227F032265
:10016500E4F52AF535E4F535AF2A1201B7E535D3BF
:100175009407502AAF3512020812038112041F9208
:1001850000A200E433F537C374079535FFE537A8BA
:1001950007088002C333D8FC4238053580CF742B5D
:1001A500252AF8A638E4F538052AE52AD394074028
:0201B500B42272
:1002A900E4F52AF535F53AF533F534E52AD394071B
:1002B900503BE4F535AF2A1201B7E535D394075021
:1002C90020AF351202081203818F3912041F500D15
:1002D900053AE5392534F534E43533F53305358008
:0E02E900D9E53AFD7C00AE33AF34120110228D
:0B041400EF25E042D9E4F5E9F5F922FC
:06009200E4FB7D02AF4714
:100098008FEA8FFA8FEB8FFBED7016EB14600C1460
:1000A800600B14600A2403705C803F8045804B809D
:1000B80051BD0122EB14600F146011146013240366
:1000C800704375DB42803E75DB53803975DB638096
:1000D8003475DB73802FBD022CEB1460121460178B
:1000E80014601C2403701E75DB4275DA4280167595
:1000F800DB5375DA53800E75DB6375DA638006753A
:08010800DB7375DA73D2DE220D
:10033D0075BBFF75B301E4F5B41204091203DDC2F8
:10034D0092438902758CFFD28C7F02120414120025
:10035D009274212536F8E6FF1203CA742B2536F860
:10036D00E6FF1203CA1204290536E536B408E2E4A5
:04037D00F53680DDF4
:030003000202599D
:10025900C0E0C0F0C083C082C0D075D000C000C06B
:1002690003C004C005C006C007C2A830B3FDC2C49C
:100279001201651202A91203FD8F2974432FF8E6B2
:10028900F547120092D2C4D2A8D007D006D005D023
:1002990004D003D000D0D0D082D083D0F0D0E032C7
:03000000020006F5
:0C000600787FE4F6D8FD75814702004DBC
:10011000BC000BBE0029EF8DF084FFADF022E4CCD3
:10012000F875F008EF2FFFEE33FEEC33FCEE9DEC9C
:10013000984005FCEE9DFE0FD5F0E9E4CEFD22EDE2
:10014000F8F5F0EE8420D21CFEADF075F008EF2F2C
:10015000FFED33FD4007985006D5F0F222C398FD1D
:050160000FD5F0EA22BA
:1000120002033DE493A3F8E493A34003F68001F2C4
:1000220008DFF48029E493A3F85407240CC8C333EF
:10003200C4540F4420C8834004F456800146F6DFBE
:10004200E4800B01020408102040809002F7E47E55
:10005200019360BCA3FF543F30E509541FFEE493B3
:10006200A360010ECF54C025E060A840B8E493A37A
:10007200FAE493A3F8E493A3C8C582C8CAC583CAA5
:10008200F0A3C8C582C8CAC583CADFE9DEE780BE5D
:01033C0000C0
:00000001FF
