:1000B600B5E7D7D3B9A4B3CCCAA6D6AEBCD200BBDB
:1000C600B6D3ADB9E2C1D900D3A2CEC4CEDEB7A8AD
:1000D600CFD4CABE00A1EFA1F0A1F3A1F4A1F9A16A
:0600E600EEA1F6A1F700F7
:10016E00E4FFFEC2A5D2A6C2A7D2A7E58030E7085B
:0E017E000FEF70010E4E70F3C2A7C2A5D2A6FD
:01018C002250
:10018D00AD0712016EC2A5C2A6C2A78D800000D216
:0A019D00A70000C2A7D2A6C2A52247
:1001A700AD0712016ED2A5C2A6C2A78D800000D2EC
:0A01B700A70000C2A7D2A6C2A5222D
:0701490012018D7F327E00E0
:10015000D3EF9400EE940040147D7D7C00ED1D7083
:0D016000011CED4C70F7EF1F70E61E80E3F0
:01016D00226F
:1001DA007F301201497F011201497F061201497FCE
:0401EA000C02018D75
:10011D00EC7024ED14601014601314601624037039
:10012D0016EF2480FB8010EF2490FB800AEF2488CB
:0C013D00FB8004EF2498FBAF0302018D4F
:0700EC007BFF7A0079DBFFC6
:1000F3008B088A09890A7C0012011DAB08AA09A989
:100103000A1201C16013050AE50A7002050914F910
:0A0113001201C1FF1201A780E222D1
:040073008E0B8F0C55
:10007700E4FCE4FBEB2480FF12018DEC70047F802D
:1000870080027F8812018DE4FA050CE50CAE0B7037
:1000970002050B14F5828E83E493FF1201A70ABAB7
:0F00A70010E70BBB20CE0CBC02C87F3002018DCE
:100003001201DA7BFF7A0079B6E4FDFF1200F37F79
:10001300707E171201507BFF7A0079C57D017F0145
:100023001200F37BFF7A0079CE7D027F021200F388
:100033007D03E41200EC7F107E271201507F011232
:10004300018D7F707E171201507F0212018DE4FD36
:100053001200EC7F707E171201507BFF7A0079CE7D
:10006300E4FD7F011200F37F707E17120150809030
:030000000201EE0C
:0C01EE00787FE4F6D8FD75810C02000358
:1001C100BB010689828A83E0225002E722BBFE023C
:0901D100E32289828A83E493226F
:00000001FF
